{
  "_format": "hh-sol-artifact-1",
  "contractName": "KingShieldNFT",
  "sourceName": "contracts/KingShieldNFT.sol",
  "abi": [
    {
      "inputs": [],
      "stateMutability": "nonpayable",
      "type": "constructor"
    },
    {
      "anonymous": false,
      "inputs": [
        {
          "indexed": true,
          "internalType": "address",
          "name": "owner",
          "type": "address"
        },
        {
          "indexed": true,
          "internalType": "address",
          "name": "approved",
          "type": "address"
        },
        {
          "indexed": true,
          "internalType": "uint256",
          "name": "tokenId",
          "type": "uint256"
        }
      ],
      "name": "Approval",
      "type": "event"
    },
    {
      "anonymous": false,
      "inputs": [
        {
          "indexed": true,
          "internalType": "address",
          "name": "owner",
          "type": "address"
        },
        {
          "indexed": true,
          "internalType": "address",
          "name": "operator",
          "type": "address"
        },
        {
          "indexed": false,
          "internalType": "bool",
          "name": "approved",
          "type": "bool"
        }
      ],
      "name": "ApprovalForAll",
      "type": "event"
    },
    {
      "anonymous": false,
      "inputs": [
        {
          "indexed": true,
          "internalType": "address",
          "name": "to",
          "type": "address"
        },
        {
          "indexed": false,
          "internalType": "uint256",
          "name": "tokenId",
          "type": "uint256"
        }
      ],
      "name": "Minted",
      "type": "event"
    },
    {
      "anonymous": false,
      "inputs": [
        {
          "indexed": true,
          "internalType": "address",
          "name": "previousOwner",
          "type": "address"
        },
        {
          "indexed": true,
          "internalType": "address",
          "name": "newOwner",
          "type": "address"
        }
      ],
      "name": "OwnershipTransferred",
      "type": "event"
    },
    {
      "anonymous": false,
      "inputs": [
        {
          "indexed": true,
          "internalType": "address",
          "name": "from",
          "type": "address"
        },
        {
          "indexed": true,
          "internalType": "address",
          "name": "to",
          "type": "address"
        },
        {
          "indexed": true,
          "internalType": "uint256",
          "name": "tokenId",
          "type": "uint256"
        }
      ],
      "name": "Transfer",
      "type": "event"
    },
    {
      "inputs": [
        {
          "internalType": "address",
          "name": "to",
          "type": "address"
        },
        {
          "internalType": "uint256",
          "name": "tokenId",
          "type": "uint256"
        }
      ],
      "name": "approve",
      "outputs": [],
      "stateMutability": "nonpayable",
      "type": "function"
    },
    {
      "inputs": [],
      "name": "arweaveTxId",
      "outputs": [
        {
          "internalType": "string",
          "name": "",
          "type": "string"
        }
      ],
      "stateMutability": "view",
      "type": "function"
    },
    {
      "inputs": [
        {
          "internalType": "address",
          "name": "owner",
          "type": "address"
        }
      ],
      "name": "balanceOf",
      "outputs": [
        {
          "internalType": "uint256",
          "name": "",
          "type": "uint256"
        }
      ],
      "stateMutability": "view",
      "type": "function"
    },
    {
      "inputs": [
        {
          "internalType": "uint256",
          "name": "tokenId",
          "type": "uint256"
        }
      ],
      "name": "getApproved",
      "outputs": [
        {
          "internalType": "address",
          "name": "",
          "type": "address"
        }
      ],
      "stateMutability": "view",
      "type": "function"
    },
    {
      "inputs": [
        {
          "internalType": "address",
          "name": "owner",
          "type": "address"
        }
      ],
      "name": "getTokensByOwner",
      "outputs": [
        {
          "internalType": "uint256[]",
          "name": "",
          "type": "uint256[]"
        }
      ],
      "stateMutability": "view",
      "type": "function"
    },
    {
      "inputs": [
        {
          "internalType": "address",
          "name": "owner",
          "type": "address"
        },
        {
          "internalType": "address",
          "name": "operator",
          "type": "address"
        }
      ],
      "name": "isApprovedForAll",
      "outputs": [
        {
          "internalType": "bool",
          "name": "",
          "type": "bool"
        }
      ],
      "stateMutability": "view",
      "type": "function"
    },
    {
      "inputs": [
        {
          "internalType": "address",
          "name": "to",
          "type": "address"
        }
      ],
      "name": "mint",
      "outputs": [
        {
          "internalType": "uint256",
          "name": "",
          "type": "uint256"
        }
      ],
      "stateMutability": "nonpayable",
      "type": "function"
    },
    {
      "inputs": [],
      "name": "name",
      "outputs": [
        {
          "internalType": "string",
          "name": "",
          "type": "string"
        }
      ],
      "stateMutability": "view",
      "type": "function"
    },
    {
      "inputs": [],
      "name": "owner",
      "outputs": [
        {
          "internalType": "address",
          "name": "",
          "type": "address"
        }
      ],
      "stateMutability": "view",
      "type": "function"
    },
    {
      "inputs": [
        {
          "internalType": "uint256",
          "name": "tokenId",
          "type": "uint256"
        }
      ],
      "name": "ownerOf",
      "outputs": [
        {
          "internalType": "address",
          "name": "",
          "type": "address"
        }
      ],
      "stateMutability": "view",
      "type": "function"
    },
    {
      "inputs": [],
      "name": "renounceOwnership",
      "outputs": [],
      "stateMutability": "nonpayable",
      "type": "function"
    },
    {
      "inputs": [
        {
          "internalType": "uint256",
          "name": "tokenId",
          "type": "uint256"
        },
        {
          "internalType": "uint256",
          "name": "salePrice",
          "type": "uint256"
        }
      ],
      "name": "royaltyInfo",
      "outputs": [
        {
          "internalType": "address",
          "name": "",
          "type": "address"
        },
        {
          "internalType": "uint256",
          "name": "",
          "type": "uint256"
        }
      ],
      "stateMutability": "view",
      "type": "function"
    },
    {
      "inputs": [
        {
          "internalType": "address",
          "name": "from",
          "type": "address"
        },
        {
          "internalType": "address",
          "name": "to",
          "type": "address"
        },
        {
          "internalType": "uint256",
          "name": "tokenId",
          "type": "uint256"
        }
      ],
      "name": "safeTransferFrom",
      "outputs": [],
      "stateMutability": "nonpayable",
      "type": "function"
    },
    {
      "inputs": [
        {
          "internalType": "address",
          "name": "from",
          "type": "address"
        },
        {
          "internalType": "address",
          "name": "to",
          "type": "address"
        },
        {
          "internalType": "uint256",
          "name": "tokenId",
          "type": "uint256"
        },
        {
          "internalType": "bytes",
          "name": "data",
          "type": "bytes"
        }
      ],
      "name": "safeTransferFrom",
      "outputs": [],
      "stateMutability": "nonpayable",
      "type": "function"
    },
    {
      "inputs": [
        {
          "internalType": "address",
          "name": "operator",
          "type": "address"
        },
        {
          "internalType": "bool",
          "name": "approved",
          "type": "bool"
        }
      ],
      "name": "setApprovalForAll",
      "outputs": [],
      "stateMutability": "nonpayable",
      "type": "function"
    },
    {
      "inputs": [
        {
          "internalType": "string",
          "name": "newTxId",
          "type": "string"
        }
      ],
      "name": "setArweaveTxId",
      "outputs": [],
      "stateMutability": "nonpayable",
      "type": "function"
    },
    {
      "inputs": [
        {
          "internalType": "string",
          "name": "newURI",
          "type": "string"
        }
      ],
      "name": "setBaseURI",
      "outputs": [],
      "stateMutability": "nonpayable",
      "type": "function"
    },
    {
      "inputs": [
        {
          "internalType": "address",
          "name": "receiver",
          "type": "address"
        },
        {
          "internalType": "uint96",
          "name": "feeNumerator",
          "type": "uint96"
        }
      ],
      "name": "setDefaultRoyalty",
      "outputs": [],
      "stateMutability": "nonpayable",
      "type": "function"
    },
    {
      "inputs": [
        {
          "internalType": "bytes4",
          "name": "interfaceId",
          "type": "bytes4"
        }
      ],
      "name": "supportsInterface",
      "outputs": [
        {
          "internalType": "bool",
          "name": "",
          "type": "bool"
        }
      ],
      "stateMutability": "view",
      "type": "function"
    },
    {
      "inputs": [],
      "name": "symbol",
      "outputs": [
        {
          "internalType": "string",
          "name": "",
          "type": "string"
        }
      ],
      "stateMutability": "view",
      "type": "function"
    },
    {
      "inputs": [
        {
          "internalType": "uint256",
          "name": "tokenId",
          "type": "uint256"
        }
      ],
      "name": "tokenURI",
      "outputs": [
        {
          "internalType": "string",
          "name": "",
          "type": "string"
        }
      ],
      "stateMutability": "view",
      "type": "function"
    },
    {
      "inputs": [
        {
          "internalType": "address",
          "name": "from",
          "type": "address"
        },
        {
          "internalType": "address",
          "name": "to",
          "type": "address"
        },
        {
          "internalType": "uint256",
          "name": "tokenId",
          "type": "uint256"
        }
      ],
      "name": "transferFrom",
      "outputs": [],
      "stateMutability": "nonpayable",
      "type": "function"
    },
    {
      "inputs": [
        {
          "internalType": "address",
          "name": "newOwner",
          "type": "address"
        }
      ],
      "name": "transferOwnership",
      "outputs": [],
      "stateMutability": "nonpayable",
      "type": "function"
    }
  ],
  "bytecode": "0x608060405260405180602001604052806000815250600a908162000024919062000433565b503480156200003257600080fd5b506040518060400160405280600d81526020017f4b696e67536869656c644e4654000000000000000000000000000000000000008152506040518060400160405280600381526020017f4b534e00000000000000000000000000000000000000000000000000000000008152508160009081620000b0919062000433565b508060019081620000c2919062000433565b505050620000e5620000d9620000eb60201b60201c565b620000f360201b60201c565b6200051a565b600033905090565b6000600860009054906101000a900473ffffffffffffffffffffffffffffffffffffffff16905081600860006101000a81548173ffffffffffffffffffffffffffffffffffffffff021916908373ffffffffffffffffffffffffffffffffffffffff1602179055508173ffffffffffffffffffffffffffffffffffffffff168173ffffffffffffffffffffffffffffffffffffffff167f8be0079c531659141344cd1fd0a4f28419497f9722a3daafe3b4186f6b6457e060405160405180910390a35050565b600081519050919050565b7f4e487b7100000000000000000000000000000000000000000000000000000000600052604160045260246000fd5b7f4e487b7100000000000000000000000000000000000000000000000000000000600052602260045260246000fd5b600060028204905060018216806200023b57607f821691505b602082108103620002515762000250620001f3565b5b50919050565b60008190508160005260206000209050919050565b60006020601f8301049050919050565b600082821b905092915050565b600060088302620002bb7fffffffffffffffffffffffffffffffffffffffffffffffffffffffffffffffff826200027c565b620002c786836200027c565b95508019841693508086168417925050509392505050565b6000819050919050565b6000819050919050565b6000620003146200030e6200030884620002df565b620002e9565b620002df565b9050919050565b6000819050919050565b6200033083620002f3565b620003486200033f826200031b565b84845462000289565b825550505050565b600090565b6200035f62000350565b6200036c81848462000325565b505050565b5b8181101562000394576200038860008262000355565b60018101905062000372565b5050565b601f821115620003e357620003ad8162000257565b620003b8846200026c565b81016020851015620003c8578190505b620003e0620003d7856200026c565b83018262000371565b50505b505050565b600082821c905092915050565b60006200040860001984600802620003e8565b1980831691505092915050565b6000620004238383620003f5565b9150826002028217905092915050565b6200043e82620001b9565b67ffffffffffffffff8111156200045a5762000459620001c4565b5b62000466825462000222565b6200047382828562000398565b600060209050601f831160018114620004ab576000841562000496578287015190505b620004a2858262000415565b86555062000512565b601f198416620004bb8662000257565b60005b82811015620004e557848901518255600182019150602085019450602081019050620004be565b8683101562000505578489015162000501601f891682620003f5565b8355505b6001600288020188555050505b505050505050565b6139b2806200052a6000396000f3fe608060405234801561001057600080fd5b506004361061014d5760003560e01c80636a627842116100c3578063b88d4fde1161007c578063b88d4fde146103af578063c8303331146103cb578063c87b56dd146103e7578063d43dfa6414610417578063e985e9c514610435578063f2fde38b146104655761014d565b80636a627842146102ed57806370a082311461031d578063715018a61461034d5780638da5cb5b1461035757806395d89b4114610375578063a22cb465146103935761014d565b806323b872dd1161011557806323b872dd146102085780632a55205a1461022457806340398d671461025557806342842e0e1461028557806355f804b3146102a15780636352211e146102bd5761014d565b806301ffc9a71461015257806304634d8d1461018257806306fdde031461019e578063081812fc146101bc578063095ea7b3146101ec575b600080fd5b61016c60048036038101906101679190612309565b610481565b6040516101799190612351565b60405180910390f35b61019c6004803603810190610197919061240e565b610493565b005b6101a66104a9565b6040516101b391906124de565b60405180910390f35b6101d660048036038101906101d19190612536565b61053b565b6040516101e39190612572565b60405180910390f35b6102066004803603810190610201919061258d565b610581565b005b610222600480360381019061021d91906125cd565b610698565b005b61023e60048036038101906102399190612620565b6106f8565b60405161024c92919061266f565b60405180910390f35b61026f600480360381019061026a9190612698565b6108e2565b60405161027c9190612783565b60405180910390f35b61029f600480360381019061029a91906125cd565b610a90565b005b6102bb60048036038101906102b691906128da565b610ab0565b005b6102d760048036038101906102d29190612536565b610b0f565b6040516102e49190612572565b60405180910390f35b61030760048036038101906103029190612698565b610b95565b6040516103149190612923565b60405180910390f35b61033760048036038101906103329190612698565b610c18565b6040516103449190612923565b60405180910390f35b610355610ccf565b005b61035f610ce3565b60405161036c9190612572565b60405180910390f35b61037d610d0d565b60405161038a91906124de565b60405180910390f35b6103ad60048036038101906103a8919061296a565b610d9f565b005b6103c960048036038101906103c49190612a4b565b610db5565b005b6103e560048036038101906103e091906128da565b610e17565b005b61040160048036038101906103fc9190612536565b610e32565b60405161040e91906124de565b60405180910390f35b61041f610eda565b60405161042c91906124de565b60405180910390f35b61044f600480360381019061044a9190612ace565b610f6c565b60405161045c9190612351565b60405180910390f35b61047f600480360381019061047a9190612698565b611000565b005b600061048c82611083565b9050919050565b61049b6110fd565b6104a5828261117b565b5050565b6060600080546104b890612b3d565b80601f01602080910402602001604051908101604052809291908181526020018280546104e490612b3d565b80156105315780601f1061050657610100808354040283529160200191610531565b820191906000526020600020905b81548152906001019060200180831161051457829003601f168201915b5050505050905090565b600061054682611310565b6004600083815260200190815260200160002060009054906101000a900473ffffffffffffffffffffffffffffffffffffffff169050919050565b600061058c82610b0f565b90508073ffffffffffffffffffffffffffffffffffffffff168373ffffffffffffffffffffffffffffffffffffffff16036105fc576040517f08c379a00000000000000000000000000000000000000000000000000000000081526004016105f390612be0565b60405180910390fd5b8073ffffffffffffffffffffffffffffffffffffffff1661061b61135b565b73ffffffffffffffffffffffffffffffffffffffff16148061064a57506106498161064461135b565b610f6c565b5b610689576040517f08c379a000000000000000000000000000000000000000000000000000000000815260040161068090612c72565b60405180910390fd5b6106938383611363565b505050565b6106a96106a361135b565b8261141c565b6106e8576040517f08c379a00000000000000000000000000000000000000000000000000000000081526004016106df90612d04565b60405180910390fd5b6106f38383836114b1565b505050565b6000806000600760008681526020019081526020016000206040518060400160405290816000820160009054906101000a900473ffffffffffffffffffffffffffffffffffffffff1673ffffffffffffffffffffffffffffffffffffffff1673ffffffffffffffffffffffffffffffffffffffff1681526020016000820160149054906101000a90046bffffffffffffffffffffffff166bffffffffffffffffffffffff166bffffffffffffffffffffffff16815250509050600073ffffffffffffffffffffffffffffffffffffffff16816000015173ffffffffffffffffffffffffffffffffffffffff160361088d5760066040518060400160405290816000820160009054906101000a900473ffffffffffffffffffffffffffffffffffffffff1673ffffffffffffffffffffffffffffffffffffffff1673ffffffffffffffffffffffffffffffffffffffff1681526020016000820160149054906101000a90046bffffffffffffffffffffffff166bffffffffffffffffffffffff166bffffffffffffffffffffffff168152505090505b60006108976117aa565b6bffffffffffffffffffffffff1682602001516bffffffffffffffffffffffff16866108c39190612d53565b6108cd9190612dc4565b90508160000151819350935050509250929050565b606060006108f060096117b4565b905060008167ffffffffffffffff81111561090e5761090d6127af565b5b60405190808252806020026020018201604052801561093c5781602001602082028036833780820191505090505b509050600080600190505b8381116109dd57610957816117c2565b801561099657508573ffffffffffffffffffffffffffffffffffffffff1661097e82610b0f565b73ffffffffffffffffffffffffffffffffffffffff16145b156109ca57808383815181106109af576109ae612df5565b5b60200260200101818152505081806109c690612e24565b9250505b80806109d590612e24565b915050610947565b5060008167ffffffffffffffff8111156109fa576109f96127af565b5b604051908082528060200260200182016040528015610a285781602001602082028036833780820191505090505b50905060005b82811015610a8357838181518110610a4957610a48612df5565b5b6020026020010151828281518110610a6457610a63612df5565b5b6020026020010181815250508080610a7b90612e24565b915050610a2e565b5080945050505050919050565b610aab83838360405180602001604052806000815250610db5565b505050565b610ab86110fd565b6000815111610afc576040517f08c379a0000000000000000000000000000000000000000000000000000000008152600401610af390612eb8565b60405180910390fd5b80600a9081610b0b9190613084565b5050565b600080610b1b83611803565b9050600073ffffffffffffffffffffffffffffffffffffffff168173ffffffffffffffffffffffffffffffffffffffff1603610b8c576040517f08c379a0000000000000000000000000000000000000000000000000000000008152600401610b83906131a2565b60405180910390fd5b80915050919050565b6000610b9f6110fd565b610ba96009611840565b6000610bb560096117b4565b9050610bc18382611856565b8273ffffffffffffffffffffffffffffffffffffffff167f30385c845b448a36257a6a1716e6ad2e1bc2cbe333cde1e69fe849ad6511adfe82604051610c079190612923565b60405180910390a280915050919050565b60008073ffffffffffffffffffffffffffffffffffffffff168273ffffffffffffffffffffffffffffffffffffffff1603610c88576040517f08c379a0000000000000000000000000000000000000000000000000000000008152600401610c7f90613234565b60405180910390fd5b600360008373ffffffffffffffffffffffffffffffffffffffff1673ffffffffffffffffffffffffffffffffffffffff168152602001908152602001600020549050919050565b610cd76110fd565b610ce16000611874565b565b6000600860009054906101000a900473ffffffffffffffffffffffffffffffffffffffff16905090565b606060018054610d1c90612b3d565b80601f0160208091040260200160405190810160405280929190818152602001828054610d4890612b3d565b8015610d955780601f10610d6a57610100808354040283529160200191610d95565b820191906000526020600020905b815481529060010190602001808311610d7857829003601f168201915b5050505050905090565b610db1610daa61135b565b838361193a565b5050565b610dc6610dc061135b565b8361141c565b610e05576040517f08c379a0000000000000000000000000000000000000000000000000000000008152600401610dfc90612d04565b60405180910390fd5b610e1184848484611aa6565b50505050565b610e1f6110fd565b80600b9081610e2e9190613084565b5050565b6060610e3d826117c2565b610e7c576040517f08c379a0000000000000000000000000000000000000000000000000000000008152600401610e73906132a0565b60405180910390fd5b6000600a8054610e8b90612b3d565b905011610ea75760405180602001604052806000815250610ed3565b600a610eb283611b02565b604051602001610ec392919061337f565b6040516020818303038152906040525b9050919050565b6060600b8054610ee990612b3d565b80601f0160208091040260200160405190810160405280929190818152602001828054610f1590612b3d565b8015610f625780601f10610f3757610100808354040283529160200191610f62565b820191906000526020600020905b815481529060010190602001808311610f4557829003601f168201915b5050505050905090565b6000600560008473ffffffffffffffffffffffffffffffffffffffff1673ffffffffffffffffffffffffffffffffffffffff16815260200190815260200160002060008373ffffffffffffffffffffffffffffffffffffffff1673ffffffffffffffffffffffffffffffffffffffff16815260200190815260200160002060009054906101000a900460ff16905092915050565b6110086110fd565b600073ffffffffffffffffffffffffffffffffffffffff168173ffffffffffffffffffffffffffffffffffffffff1603611077576040517f08c379a000000000000000000000000000000000000000000000000000000000815260040161106e90613415565b60405180910390fd5b61108081611874565b50565b60007f2a55205a000000000000000000000000000000000000000000000000000000007bffffffffffffffffffffffffffffffffffffffffffffffffffffffff1916827bffffffffffffffffffffffffffffffffffffffffffffffffffffffff191614806110f657506110f582611bd0565b5b9050919050565b61110561135b565b73ffffffffffffffffffffffffffffffffffffffff16611123610ce3565b73ffffffffffffffffffffffffffffffffffffffff1614611179576040517f08c379a000000000000000000000000000000000000000000000000000000000815260040161117090613481565b60405180910390fd5b565b6111836117aa565b6bffffffffffffffffffffffff16816bffffffffffffffffffffffff1611156111e1576040517f08c379a00000000000000000000000000000000000000000000000000000000081526004016111d890613513565b60405180910390fd5b600073ffffffffffffffffffffffffffffffffffffffff168273ffffffffffffffffffffffffffffffffffffffff1603611250576040517f08c379a00000000000000000000000000000000000000000000000000000000081526004016112479061357f565b60405180910390fd5b60405180604001604052808373ffffffffffffffffffffffffffffffffffffffff168152602001826bffffffffffffffffffffffff16815250600660008201518160000160006101000a81548173ffffffffffffffffffffffffffffffffffffffff021916908373ffffffffffffffffffffffffffffffffffffffff16021790555060208201518160000160146101000a8154816bffffffffffffffffffffffff02191690836bffffffffffffffffffffffff1602179055509050505050565b611319816117c2565b611358576040517f08c379a000000000000000000000000000000000000000000000000000000000815260040161134f906131a2565b60405180910390fd5b50565b600033905090565b816004600083815260200190815260200160002060006101000a81548173ffffffffffffffffffffffffffffffffffffffff021916908373ffffffffffffffffffffffffffffffffffffffff160217905550808273ffffffffffffffffffffffffffffffffffffffff166113d683610b0f565b73ffffffffffffffffffffffffffffffffffffffff167f8c5be1e5ebec7d5bd14f71427d1e84f3dd0314c0f7b2291e5b200ac8c7c3b92560405160405180910390a45050565b60008061142883610b0f565b90508073ffffffffffffffffffffffffffffffffffffffff168473ffffffffffffffffffffffffffffffffffffffff16148061146a57506114698185610f6c565b5b806114a857508373ffffffffffffffffffffffffffffffffffffffff166114908461053b565b73ffffffffffffffffffffffffffffffffffffffff16145b91505092915050565b8273ffffffffffffffffffffffffffffffffffffffff166114d182610b0f565b73ffffffffffffffffffffffffffffffffffffffff1614611527576040517f08c379a000000000000000000000000000000000000000000000000000000000815260040161151e90613611565b60405180910390fd5b600073ffffffffffffffffffffffffffffffffffffffff168273ffffffffffffffffffffffffffffffffffffffff1603611596576040517f08c379a000000000000000000000000000000000000000000000000000000000815260040161158d906136a3565b60405180910390fd5b6115a38383836001611cb2565b8273ffffffffffffffffffffffffffffffffffffffff166115c382610b0f565b73ffffffffffffffffffffffffffffffffffffffff1614611619576040517f08c379a000000000000000000000000000000000000000000000000000000000815260040161161090613611565b60405180910390fd5b6004600082815260200190815260200160002060006101000a81549073ffffffffffffffffffffffffffffffffffffffff02191690556001600360008573ffffffffffffffffffffffffffffffffffffffff1673ffffffffffffffffffffffffffffffffffffffff168152602001908152602001600020600082825403925050819055506001600360008473ffffffffffffffffffffffffffffffffffffffff1673ffffffffffffffffffffffffffffffffffffffff16815260200190815260200160002060008282540192505081905550816002600083815260200190815260200160002060006101000a81548173ffffffffffffffffffffffffffffffffffffffff021916908373ffffffffffffffffffffffffffffffffffffffff160217905550808273ffffffffffffffffffffffffffffffffffffffff168473ffffffffffffffffffffffffffffffffffffffff167fddf252ad1be2c89b69c2b068fc378daa952ba7f163c4a11628f55a4df523b3ef60405160405180910390a46117a58383836001611cb8565b505050565b6000612710905090565b600081600001549050919050565b60008073ffffffffffffffffffffffffffffffffffffffff166117e483611803565b73ffffffffffffffffffffffffffffffffffffffff1614159050919050565b60006002600083815260200190815260200160002060009054906101000a900473ffffffffffffffffffffffffffffffffffffffff169050919050565b6001816000016000828254019250508190555050565b611870828260405180602001604052806000815250611cbe565b5050565b6000600860009054906101000a900473ffffffffffffffffffffffffffffffffffffffff16905081600860006101000a81548173ffffffffffffffffffffffffffffffffffffffff021916908373ffffffffffffffffffffffffffffffffffffffff1602179055508173ffffffffffffffffffffffffffffffffffffffff168173ffffffffffffffffffffffffffffffffffffffff167f8be0079c531659141344cd1fd0a4f28419497f9722a3daafe3b4186f6b6457e060405160405180910390a35050565b8173ffffffffffffffffffffffffffffffffffffffff168373ffffffffffffffffffffffffffffffffffffffff16036119a8576040517f08c379a000000000000000000000000000000000000000000000000000000000815260040161199f9061370f565b60405180910390fd5b80600560008573ffffffffffffffffffffffffffffffffffffffff1673ffffffffffffffffffffffffffffffffffffffff16815260200190815260200160002060008473ffffffffffffffffffffffffffffffffffffffff1673ffffffffffffffffffffffffffffffffffffffff16815260200190815260200160002060006101000a81548160ff0219169083151502179055508173ffffffffffffffffffffffffffffffffffffffff168373ffffffffffffffffffffffffffffffffffffffff167f17307eab39ab6107e8899845ad3d59bd9653f200f220920489ca2b5937696c3183604051611a999190612351565b60405180910390a3505050565b611ab18484846114b1565b611abd84848484611d19565b611afc576040517f08c379a0000000000000000000000000000000000000000000000000000000008152600401611af3906137a1565b60405180910390fd5b50505050565b606060006001611b1184611ea0565b01905060008167ffffffffffffffff811115611b3057611b2f6127af565b5b6040519080825280601f01601f191660200182016040528015611b625781602001600182028036833780820191505090505b509050600082602001820190505b600115611bc5578080600190039150507f3031323334353637383961626364656600000000000000000000000000000000600a86061a8153600a8581611bb957611bb8612d95565b5b04945060008503611b70575b819350505050919050565b60007f80ac58cd000000000000000000000000000000000000000000000000000000007bffffffffffffffffffffffffffffffffffffffffffffffffffffffff1916827bffffffffffffffffffffffffffffffffffffffffffffffffffffffff19161480611c9b57507f5b5e139f000000000000000000000000000000000000000000000000000000007bffffffffffffffffffffffffffffffffffffffffffffffffffffffff1916827bffffffffffffffffffffffffffffffffffffffffffffffffffffffff1916145b80611cab5750611caa82611ff3565b5b9050919050565b50505050565b50505050565b611cc8838361205d565b611cd56000848484611d19565b611d14576040517f08c379a0000000000000000000000000000000000000000000000000000000008152600401611d0b906137a1565b60405180910390fd5b505050565b6000611d3a8473ffffffffffffffffffffffffffffffffffffffff1661227a565b15611e93578373ffffffffffffffffffffffffffffffffffffffff1663150b7a02611d6361135b565b8786866040518563ffffffff1660e01b8152600401611d859493929190613816565b6020604051808303816000875af1925050508015611dc157506040513d601f19601f82011682018060405250810190611dbe9190613877565b60015b611e43573d8060008114611df1576040519150601f19603f3d011682016040523d82523d6000602084013e611df6565b606091505b506000815103611e3b576040517f08c379a0000000000000000000000000000000000000000000000000000000008152600401611e32906137a1565b60405180910390fd5b805181602001fd5b63150b7a0260e01b7bffffffffffffffffffffffffffffffffffffffffffffffffffffffff1916817bffffffffffffffffffffffffffffffffffffffffffffffffffffffff191614915050611e98565b600190505b949350505050565b600080600090507a184f03e93ff9f4daa797ed6e38ed64bf6a1f0100000000000000008310611efe577a184f03e93ff9f4daa797ed6e38ed64bf6a1f0100000000000000008381611ef457611ef3612d95565b5b0492506040810190505b6d04ee2d6d415b85acef81000000008310611f3b576d04ee2d6d415b85acef81000000008381611f3157611f30612d95565b5b0492506020810190505b662386f26fc100008310611f6a57662386f26fc100008381611f6057611f5f612d95565b5b0492506010810190505b6305f5e1008310611f93576305f5e1008381611f8957611f88612d95565b5b0492506008810190505b6127108310611fb8576127108381611fae57611fad612d95565b5b0492506004810190505b60648310611fdb5760648381611fd157611fd0612d95565b5b0492506002810190505b600a8310611fea576001810190505b80915050919050565b60007f01ffc9a7000000000000000000000000000000000000000000000000000000007bffffffffffffffffffffffffffffffffffffffffffffffffffffffff1916827bffffffffffffffffffffffffffffffffffffffffffffffffffffffff1916149050919050565b600073ffffffffffffffffffffffffffffffffffffffff168273ffffffffffffffffffffffffffffffffffffffff16036120cc576040517f08c379a00000000000000000000000000000000000000000000000000000000081526004016120c3906138f0565b60405180910390fd5b6120d5816117c2565b15612115576040517f08c379a000000000000000000000000000000000000000000000000000000000815260040161210c9061395c565b60405180910390fd5b612123600083836001611cb2565b61212c816117c2565b1561216c576040517f08c379a00000000000000000000000000000000000000000000000000000000081526004016121639061395c565b60405180910390fd5b6001600360008473ffffffffffffffffffffffffffffffffffffffff1673ffffffffffffffffffffffffffffffffffffffff16815260200190815260200160002060008282540192505081905550816002600083815260200190815260200160002060006101000a81548173ffffffffffffffffffffffffffffffffffffffff021916908373ffffffffffffffffffffffffffffffffffffffff160217905550808273ffffffffffffffffffffffffffffffffffffffff16600073ffffffffffffffffffffffffffffffffffffffff167fddf252ad1be2c89b69c2b068fc378daa952ba7f163c4a11628f55a4df523b3ef60405160405180910390a4612276600083836001611cb8565b5050565b6000808273ffffffffffffffffffffffffffffffffffffffff163b119050919050565b6000604051905090565b600080fd5b600080fd5b60007fffffffff0000000000000000000000000000000000000000000000000000000082169050919050565b6122e6816122b1565b81146122f157600080fd5b50565b600081359050612303816122dd565b92915050565b60006020828403121561231f5761231e6122a7565b5b600061232d848285016122f4565b91505092915050565b60008115159050919050565b61234b81612336565b82525050565b60006020820190506123666000830184612342565b92915050565b600073ffffffffffffffffffffffffffffffffffffffff82169050919050565b60006123978261236c565b9050919050565b6123a78161238c565b81146123b257600080fd5b50565b6000813590506123c48161239e565b92915050565b60006bffffffffffffffffffffffff82169050919050565b6123eb816123ca565b81146123f657600080fd5b50565b600081359050612408816123e2565b92915050565b60008060408385031215612425576124246122a7565b5b6000612433858286016123b5565b9250506020612444858286016123f9565b9150509250929050565b600081519050919050565b600082825260208201905092915050565b60005b8381101561248857808201518184015260208101905061246d565b60008484015250505050565b6000601f19601f8301169050919050565b60006124b08261244e565b6124ba8185612459565b93506124ca81856020860161246a565b6124d381612494565b840191505092915050565b600060208201905081810360008301526124f881846124a5565b905092915050565b6000819050919050565b61251381612500565b811461251e57600080fd5b50565b6000813590506125308161250a565b92915050565b60006020828403121561254c5761254b6122a7565b5b600061255a84828501612521565b91505092915050565b61256c8161238c565b82525050565b60006020820190506125876000830184612563565b92915050565b600080604083850312156125a4576125a36122a7565b5b60006125b2858286016123b5565b92505060206125c385828601612521565b9150509250929050565b6000806000606084860312156125e6576125e56122a7565b5b60006125f4868287016123b5565b9350506020612605868287016123b5565b925050604061261686828701612521565b9150509250925092565b60008060408385031215612637576126366122a7565b5b600061264585828601612521565b925050602061265685828601612521565b9150509250929050565b61266981612500565b82525050565b60006040820190506126846000830185612563565b6126916020830184612660565b9392505050565b6000602082840312156126ae576126ad6122a7565b5b60006126bc848285016123b5565b91505092915050565b600081519050919050565b600082825260208201905092915050565b6000819050602082019050919050565b6126fa81612500565b82525050565b600061270c83836126f1565b60208301905092915050565b6000602082019050919050565b6000612730826126c5565b61273a81856126d0565b9350612745836126e1565b8060005b8381101561277657815161275d8882612700565b975061276883612718565b925050600181019050612749565b5085935050505092915050565b6000602082019050818103600083015261279d8184612725565b905092915050565b600080fd5b600080fd5b7f4e487b7100000000000000000000000000000000000000000000000000000000600052604160045260246000fd5b6127e782612494565b810181811067ffffffffffffffff82111715612806576128056127af565b5b80604052505050565b600061281961229d565b905061282582826127de565b919050565b600067ffffffffffffffff821115612845576128446127af565b5b61284e82612494565b9050602081019050919050565b82818337600083830152505050565b600061287d6128788461282a565b61280f565b905082815260208101848484011115612899576128986127aa565b5b6128a484828561285b565b509392505050565b600082601f8301126128c1576128c06127a5565b5b81356128d184826020860161286a565b91505092915050565b6000602082840312156128f0576128ef6122a7565b5b600082013567ffffffffffffffff81111561290e5761290d6122ac565b5b61291a848285016128ac565b91505092915050565b60006020820190506129386000830184612660565b92915050565b61294781612336565b811461295257600080fd5b50565b6000813590506129648161293e565b92915050565b60008060408385031215612981576129806122a7565b5b600061298f858286016123b5565b92505060206129a085828601612955565b9150509250929050565b600067ffffffffffffffff8211156129c5576129c46127af565b5b6129ce82612494565b9050602081019050919050565b60006129ee6129e9846129aa565b61280f565b905082815260208101848484011115612a0a57612a096127aa565b5b612a1584828561285b565b509392505050565b600082601f830112612a3257612a316127a5565b5b8135612a428482602086016129db565b91505092915050565b60008060008060808587031215612a6557612a646122a7565b5b6000612a73878288016123b5565b9450506020612a84878288016123b5565b9350506040612a9587828801612521565b925050606085013567ffffffffffffffff811115612ab657612ab56122ac565b5b612ac287828801612a1d565b91505092959194509250565b60008060408385031215612ae557612ae46122a7565b5b6000612af3858286016123b5565b9250506020612b04858286016123b5565b9150509250929050565b7f4e487b7100000000000000000000000000000000000000000000000000000000600052602260045260246000fd5b60006002820490506001821680612b5557607f821691505b602082108103612b6857612b67612b0e565b5b50919050565b7f4552433732313a20617070726f76616c20746f2063757272656e74206f776e6560008201527f7200000000000000000000000000000000000000000000000000000000000000602082015250565b6000612bca602183612459565b9150612bd582612b6e565b604082019050919050565b60006020820190508181036000830152612bf981612bbd565b9050919050565b7f4552433732313a20617070726f76652063616c6c6572206973206e6f7420746f60008201527f6b656e206f776e6572206f7220617070726f76656420666f7220616c6c000000602082015250565b6000612c5c603d83612459565b9150612c6782612c00565b604082019050919050565b60006020820190508181036000830152612c8b81612c4f565b9050919050565b7f4552433732313a2063616c6c6572206973206e6f7420746f6b656e206f776e6560008201527f72206f7220617070726f76656400000000000000000000000000000000000000602082015250565b6000612cee602d83612459565b9150612cf982612c92565b604082019050919050565b60006020820190508181036000830152612d1d81612ce1565b9050919050565b7f4e487b7100000000000000000000000000000000000000000000000000000000600052601160045260246000fd5b6000612d5e82612500565b9150612d6983612500565b9250828202612d7781612500565b91508282048414831517612d8e57612d8d612d24565b5b5092915050565b7f4e487b7100000000000000000000000000000000000000000000000000000000600052601260045260246000fd5b6000612dcf82612500565b9150612dda83612500565b925082612dea57612de9612d95565b5b828204905092915050565b7f4e487b7100000000000000000000000000000000000000000000000000000000600052603260045260246000fd5b6000612e2f82612500565b91507fffffffffffffffffffffffffffffffffffffffffffffffffffffffffffffffff8203612e6157612e60612d24565b5b600182019050919050565b7f42617365205552492063616e6e6f7420626520656d7074790000000000000000600082015250565b6000612ea2601883612459565b9150612ead82612e6c565b602082019050919050565b60006020820190508181036000830152612ed181612e95565b9050919050565b60008190508160005260206000209050919050565b60006020601f8301049050919050565b600082821b905092915050565b600060088302612f3a7fffffffffffffffffffffffffffffffffffffffffffffffffffffffffffffffff82612efd565b612f448683612efd565b95508019841693508086168417925050509392505050565b6000819050919050565b6000612f81612f7c612f7784612500565b612f5c565b612500565b9050919050565b6000819050919050565b612f9b83612f66565b612faf612fa782612f88565b848454612f0a565b825550505050565b600090565b612fc4612fb7565b612fcf818484612f92565b505050565b5b81811015612ff357612fe8600082612fbc565b600181019050612fd5565b5050565b601f8211156130385761300981612ed8565b61301284612eed565b81016020851015613021578190505b61303561302d85612eed565b830182612fd4565b50505b505050565b600082821c905092915050565b600061305b6000198460080261303d565b1980831691505092915050565b6000613074838361304a565b9150826002028217905092915050565b61308d8261244e565b67ffffffffffffffff8111156130a6576130a56127af565b5b6130b08254612b3d565b6130bb828285612ff7565b600060209050601f8311600181146130ee57600084156130dc578287015190505b6130e68582613068565b86555061314e565b601f1984166130fc86612ed8565b60005b82811015613124578489015182556001820191506020850194506020810190506130ff565b86831015613141578489015161313d601f89168261304a565b8355505b6001600288020188555050505b505050505050565b7f4552433732313a20696e76616c696420746f6b656e2049440000000000000000600082015250565b600061318c601883612459565b915061319782613156565b602082019050919050565b600060208201905081810360008301526131bb8161317f565b9050919050565b7f4552433732313a2061646472657373207a65726f206973206e6f74206120766160008201527f6c6964206f776e65720000000000000000000000000000000000000000000000602082015250565b600061321e602983612459565b9150613229826131c2565b604082019050919050565b6000602082019050818103600083015261324d81613211565b9050919050565b7f546f6b656e20646f6573206e6f74206578697374000000000000000000000000600082015250565b600061328a601483612459565b915061329582613254565b602082019050919050565b600060208201905081810360008301526132b98161327d565b9050919050565b600081905092915050565b600081546132d881612b3d565b6132e281866132c0565b945060018216600081146132fd576001811461331257613345565b60ff1983168652811515820286019350613345565b61331b85612ed8565b60005b8381101561333d5781548189015260018201915060208101905061331e565b838801955050505b50505092915050565b60006133598261244e565b61336381856132c0565b935061337381856020860161246a565b80840191505092915050565b600061338b82856132cb565b9150613397828461334e565b91508190509392505050565b7f4f776e61626c653a206e6577206f776e657220697320746865207a65726f206160008201527f6464726573730000000000000000000000000000000000000000000000000000602082015250565b60006133ff602683612459565b915061340a826133a3565b604082019050919050565b6000602082019050818103600083015261342e816133f2565b9050919050565b7f4f776e61626c653a2063616c6c6572206973206e6f7420746865206f776e6572600082015250565b600061346b602083612459565b915061347682613435565b602082019050919050565b6000602082019050818103600083015261349a8161345e565b9050919050565b7f455243323938313a20726f79616c7479206665652077696c6c2065786365656460008201527f2073616c65507269636500000000000000000000000000000000000000000000602082015250565b60006134fd602a83612459565b9150613508826134a1565b604082019050919050565b6000602082019050818103600083015261352c816134f0565b9050919050565b7f455243323938313a20696e76616c696420726563656976657200000000000000600082015250565b6000613569601983612459565b915061357482613533565b602082019050919050565b600060208201905081810360008301526135988161355c565b9050919050565b7f4552433732313a207472616e736665722066726f6d20696e636f72726563742060008201527f6f776e6572000000000000000000000000000000000000000000000000000000602082015250565b60006135fb602583612459565b91506136068261359f565b604082019050919050565b6000602082019050818103600083015261362a816135ee565b9050919050565b7f4552433732313a207472616e7366657220746f20746865207a65726f2061646460008201527f7265737300000000000000000000000000000000000000000000000000000000602082015250565b600061368d602483612459565b915061369882613631565b604082019050919050565b600060208201905081810360008301526136bc81613680565b9050919050565b7f4552433732313a20617070726f766520746f2063616c6c657200000000000000600082015250565b60006136f9601983612459565b9150613704826136c3565b602082019050919050565b60006020820190508181036000830152613728816136ec565b9050919050565b7f4552433732313a207472616e7366657220746f206e6f6e20455243373231526560008201527f63656976657220696d706c656d656e7465720000000000000000000000000000602082015250565b600061378b603283612459565b91506137968261372f565b604082019050919050565b600060208201905081810360008301526137ba8161377e565b9050919050565b600081519050919050565b600082825260208201905092915050565b60006137e8826137c1565b6137f281856137cc565b935061380281856020860161246a565b61380b81612494565b840191505092915050565b600060808201905061382b6000830187612563565b6138386020830186612563565b6138456040830185612660565b818103606083015261385781846137dd565b905095945050505050565b600081519050613871816122dd565b92915050565b60006020828403121561388d5761388c6122a7565b5b600061389b84828501613862565b91505092915050565b7f4552433732313a206d696e7420746f20746865207a65726f2061646472657373600082015250565b60006138da602083612459565b91506138e5826138a4565b602082019050919050565b60006020820190508181036000830152613909816138cd565b9050919050565b7f4552433732313a20746f6b656e20616c7265616479206d696e74656400000000600082015250565b6000613946601c83612459565b915061395182613910565b602082019050919050565b6000602082019050818103600083015261397581613939565b905091905056fea2646970667358221220554e876325e5ab8929700998861d5fa9e0292460ae3aef81f0b282b4a81e18c164736f6c63430008110033",
  "linkReferences": {},
  "deployedLinkReferences": {}
}